{
  "_format": "hh-sol-artifact-1",
  "contractName": "AcademicCertificate",
  "sourceName": "contracts/AcademicCertificate.sol",
  "abi": [
    {
      "anonymous": false,
      "inputs": [
        {
          "indexed": true,
          "internalType": "uint256",
          "name": "batchId",
          "type": "uint256"
        },
        {
          "indexed": true,
          "internalType": "bytes32",
          "name": "merkleRoot",
          "type": "bytes32"
        },
        {
          "indexed": true,
          "internalType": "address",
          "name": "issuer",
          "type": "address"
        },
        {
          "indexed": false,
          "internalType": "uint256",
          "name": "issuedAt",
          "type": "uint256"
        }
      ],
      "name": "BatchIssued",
      "type": "event"
    },
    {
      "anonymous": false,
      "inputs": [
        {
          "indexed": true,
          "internalType": "uint256",
          "name": "certId",
          "type": "uint256"
        },
        {
          "indexed": true,
          "internalType": "string",
          "name": "studentId",
          "type": "string"
        },
        {
          "indexed": false,
          "internalType": "string",
          "name": "fileHash",
          "type": "string"
        },
        {
          "indexed": true,
          "internalType": "address",
          "name": "issuer",
          "type": "address"
        },
        {
          "indexed": false,
          "internalType": "uint256",
          "name": "issuedAt",
          "type": "uint256"
        }
      ],
      "name": "CertificateIssued",
      "type": "event"
    },
    {
      "inputs": [],
      "name": "batchCount",
      "outputs": [
        {
          "internalType": "uint256",
          "name": "",
          "type": "uint256"
        }
      ],
      "stateMutability": "view",
      "type": "function"
    },
    {
      "inputs": [
        {
          "internalType": "uint256",
          "name": "",
          "type": "uint256"
        }
      ],
      "name": "batches",
      "outputs": [
        {
          "internalType": "bytes32",
          "name": "merkleRoot",
          "type": "bytes32"
        },
        {
          "internalType": "address",
          "name": "issuer",
          "type": "address"
        },
        {
          "internalType": "uint256",
          "name": "issuedAt",
          "type": "uint256"
        }
      ],
      "stateMutability": "view",
      "type": "function"
    },
    {
      "inputs": [],
      "name": "certificateCount",
      "outputs": [
        {
          "internalType": "uint256",
          "name": "",
          "type": "uint256"
        }
      ],
      "stateMutability": "view",
      "type": "function"
    },
    {
      "inputs": [
        {
          "internalType": "uint256",
          "name": "",
          "type": "uint256"
        }
      ],
      "name": "certificates",
      "outputs": [
        {
          "internalType": "string",
          "name": "studentId",
          "type": "string"
        },
        {
          "internalType": "string",
          "name": "fileHash",
          "type": "string"
        },
        {
          "internalType": "address",
          "name": "issuer",
          "type": "address"
        },
        {
          "internalType": "uint256",
          "name": "issuedAt",
          "type": "uint256"
        }
      ],
      "stateMutability": "view",
      "type": "function"
    },
    {
      "inputs": [
        {
          "internalType": "uint256",
          "name": "batchId",
          "type": "uint256"
        }
      ],
      "name": "getBatch",
      "outputs": [
        {
          "internalType": "bytes32",
          "name": "merkleRoot",
          "type": "bytes32"
        },
        {
          "internalType": "address",
          "name": "issuer",
          "type": "address"
        },
        {
          "internalType": "uint256",
          "name": "issuedAt",
          "type": "uint256"
        }
      ],
      "stateMutability": "view",
      "type": "function"
    },
    {
      "inputs": [
        {
          "internalType": "uint256",
          "name": "certId",
          "type": "uint256"
        }
      ],
      "name": "getCertificate",
      "outputs": [
        {
          "internalType": "string",
          "name": "studentId",
          "type": "string"
        },
        {
          "internalType": "string",
          "name": "fileHash",
          "type": "string"
        },
        {
          "internalType": "address",
          "name": "issuer",
          "type": "address"
        },
        {
          "internalType": "uint256",
          "name": "issuedAt",
          "type": "uint256"
        }
      ],
      "stateMutability": "view",
      "type": "function"
    },
    {
      "inputs": [
        {
          "internalType": "bytes32",
          "name": "merkleRoot",
          "type": "bytes32"
        }
      ],
      "name": "issueBatchMerkle",
      "outputs": [
        {
          "internalType": "uint256",
          "name": "batchId",
          "type": "uint256"
        }
      ],
      "stateMutability": "nonpayable",
      "type": "function"
    },
    {
      "inputs": [
        {
          "internalType": "string",
          "name": "studentId",
          "type": "string"
        },
        {
          "internalType": "string",
          "name": "fileHash",
          "type": "string"
        }
      ],
      "name": "issueCertificate",
      "outputs": [
        {
          "internalType": "uint256",
          "name": "certId",
          "type": "uint256"
        }
      ],
      "stateMutability": "nonpayable",
      "type": "function"
    },
    {
      "inputs": [
        {
          "internalType": "bytes32",
          "name": "leaf",
          "type": "bytes32"
        },
        {
          "internalType": "uint256",
          "name": "batchId",
          "type": "uint256"
        },
        {
          "internalType": "bytes32[]",
          "name": "proof",
          "type": "bytes32[]"
        }
      ],
      "name": "verifyInBatch",
      "outputs": [
        {
          "internalType": "bool",
          "name": "",
          "type": "bool"
        }
      ],
      "stateMutability": "view",
      "type": "function"
    }
  ],
  "bytecode": "0x6080604052348015600f57600080fd5b506117138061001f6000396000f3fe608060405234801561001057600080fd5b50600436106100935760003560e01c80635ac44282116100665780635ac4428214610137578063663b3e22146101695780636b1d33e51461019c578063b32c4d8d146101cc578063d0f36531146101fe57610093565b806306f1305614610098578063211bbe71146100b657806351640fee146100e657806352d7b89c14610119575b600080fd5b6100a061022e565b6040516100ad9190610bd9565b60405180910390f35b6100d060048036038101906100cb9190610c63565b610234565b6040516100dd9190610bd9565b60405180910390f35b61010060048036038101906100fb9190610d10565b6104a2565b6040516101109493929190610e0e565b60405180910390f35b6101216106b6565b60405161012e9190610bd9565b60405180910390f35b610151600480360381019061014c9190610d10565b6106bc565b60405161016093929190610e7a565b60405180910390f35b610183600480360381019061017e9190610d10565b6107ae565b6040516101939493929190610e0e565b60405180910390f35b6101b660048036038101906101b19190610f33565b61090e565b6040516101c39190610fc2565b60405180910390f35b6101e660048036038101906101e19190610d10565b610a1b565b6040516101f593929190610e7a565b60405180910390f35b61021860048036038101906102139190610fdd565b610a65565b6040516102259190610bd9565b60405180910390f35b60025481565b600080858590501161027b576040517f08c379a000000000000000000000000000000000000000000000000000000000815260040161027290611056565b60405180910390fd5b600083839050116102c1576040517f08c379a00000000000000000000000000000000000000000000000000000000081526004016102b8906110c2565b60405180910390fd5b6000549050604051806080016040528086868080601f016020809104026020016040519081016040528093929190818152602001838380828437600081840152601f19601f82011690508083019250505050505050815260200184848080601f016020809104026020016040519081016040528093929190818152602001838380828437600081840152601f19601f8201169050808301925050505050505081526020013373ffffffffffffffffffffffffffffffffffffffff168152602001428152506001600083815260200190815260200160002060008201518160000190816103ad919061131d565b5060208201518160010190816103c3919061131d565b5060408201518160020160006101000a81548173ffffffffffffffffffffffffffffffffffffffff021916908373ffffffffffffffffffffffffffffffffffffffff160217905550606082015181600301559050503373ffffffffffffffffffffffffffffffffffffffff16858560405161043f92919061142e565b6040518091039020827fb07069e23781704a9604760f879cb47d80ef60e392203a4f66ea3c247ebf64dd86864260405161047b93929190611474565b60405180910390a4600080815480929190610495906114d5565b9190505550949350505050565b60608060008060005485106104ec576040517f08c379a00000000000000000000000000000000000000000000000000000000081526004016104e390611569565b60405180910390fd5b60006001600087815260200190815260200160002060405180608001604052908160008201805461051c90611140565b80601f016020809104026020016040519081016040528092919081815260200182805461054890611140565b80156105955780601f1061056a57610100808354040283529160200191610595565b820191906000526020600020905b81548152906001019060200180831161057857829003601f168201915b505050505081526020016001820180546105ae90611140565b80601f01602080910402602001604051908101604052809291908181526020018280546105da90611140565b80156106275780601f106105fc57610100808354040283529160200191610627565b820191906000526020600020905b81548152906001019060200180831161060a57829003601f168201915b505050505081526020016002820160009054906101000a900473ffffffffffffffffffffffffffffffffffffffff1673ffffffffffffffffffffffffffffffffffffffff1673ffffffffffffffffffffffffffffffffffffffff168152602001600382015481525050905080600001518160200151826040015183606001519450945094509450509193509193565b60005481565b60008060006002548410610705576040517f08c379a00000000000000000000000000000000000000000000000000000000081526004016106fc906115d5565b60405180910390fd5b600060036000868152602001908152602001600020604051806060016040529081600082015481526020016001820160009054906101000a900473ffffffffffffffffffffffffffffffffffffffff1673ffffffffffffffffffffffffffffffffffffffff1673ffffffffffffffffffffffffffffffffffffffff1681526020016002820154815250509050806000015181602001518260400151935093509350509193909250565b60016020528060005260406000206000915090508060000180546107d190611140565b80601f01602080910402602001604051908101604052809291908181526020018280546107fd90611140565b801561084a5780601f1061081f5761010080835404028352916020019161084a565b820191906000526020600020905b81548152906001019060200180831161082d57829003601f168201915b50505050509080600101805461085f90611140565b80601f016020809104026020016040519081016040528092919081815260200182805461088b90611140565b80156108d85780601f106108ad576101008083540402835291602001916108d8565b820191906000526020600020905b8154815290600101906020018083116108bb57829003601f168201915b5050505050908060020160009054906101000a900473ffffffffffffffffffffffffffffffffffffffff16908060030154905084565b60006002548410610954576040517f08c379a000000000000000000000000000000000000000000000000000000000815260040161094b906115d5565b60405180910390fd5b600085905060005b848490508110156109f657600085858381811061097c5761097b6115f5565b5b9050602002013590508083116109bc57828160405160200161099f929190611645565b6040516020818303038152906040528051906020012092506109e8565b80836040516020016109cf929190611645565b6040516020818303038152906040528051906020012092505b50808060010191505061095c565b5060036000868152602001908152602001600020600001548114915050949350505050565b60036020528060005260406000206000915090508060000154908060010160009054906101000a900473ffffffffffffffffffffffffffffffffffffffff16908060020154905083565b60008060001b8203610aac576040517f08c379a0000000000000000000000000000000000000000000000000000000008152600401610aa3906116bd565b60405180910390fd5b600254905060405180606001604052808381526020013373ffffffffffffffffffffffffffffffffffffffff16815260200142815250600360008381526020019081526020016000206000820151816000015560208201518160010160006101000a81548173ffffffffffffffffffffffffffffffffffffffff021916908373ffffffffffffffffffffffffffffffffffffffff160217905550604082015181600201559050503373ffffffffffffffffffffffffffffffffffffffff1682827f16e1c5d5af334d0448bb98729f46f9fb0d19c96b44c449c14d88badc9a7a087042604051610b9b9190610bd9565b60405180910390a460026000815480929190610bb6906114d5565b9190505550919050565b6000819050919050565b610bd381610bc0565b82525050565b6000602082019050610bee6000830184610bca565b92915050565b600080fd5b600080fd5b600080fd5b600080fd5b600080fd5b60008083601f840112610c2357610c22610bfe565b5b8235905067ffffffffffffffff811115610c4057610c3f610c03565b5b602083019150836001820283011115610c5c57610c5b610c08565b5b9250929050565b60008060008060408587031215610c7d57610c7c610bf4565b5b600085013567ffffffffffffffff811115610c9b57610c9a610bf9565b5b610ca787828801610c0d565b9450945050602085013567ffffffffffffffff811115610cca57610cc9610bf9565b5b610cd687828801610c0d565b925092505092959194509250565b610ced81610bc0565b8114610cf857600080fd5b50565b600081359050610d0a81610ce4565b92915050565b600060208284031215610d2657610d25610bf4565b5b6000610d3484828501610cfb565b91505092915050565b600081519050919050565b600082825260208201905092915050565b60005b83811015610d77578082015181840152602081019050610d5c565b60008484015250505050565b6000601f19601f8301169050919050565b6000610d9f82610d3d565b610da98185610d48565b9350610db9818560208601610d59565b610dc281610d83565b840191505092915050565b600073ffffffffffffffffffffffffffffffffffffffff82169050919050565b6000610df882610dcd565b9050919050565b610e0881610ded565b82525050565b60006080820190508181036000830152610e288187610d94565b90508181036020830152610e3c8186610d94565b9050610e4b6040830185610dff565b610e586060830184610bca565b95945050505050565b6000819050919050565b610e7481610e61565b82525050565b6000606082019050610e8f6000830186610e6b565b610e9c6020830185610dff565b610ea96040830184610bca565b949350505050565b610eba81610e61565b8114610ec557600080fd5b50565b600081359050610ed781610eb1565b92915050565b60008083601f840112610ef357610ef2610bfe565b5b8235905067ffffffffffffffff811115610f1057610f0f610c03565b5b602083019150836020820283011115610f2c57610f2b610c08565b5b9250929050565b60008060008060608587031215610f4d57610f4c610bf4565b5b6000610f5b87828801610ec8565b9450506020610f6c87828801610cfb565b935050604085013567ffffffffffffffff811115610f8d57610f8c610bf9565b5b610f9987828801610edd565b925092505092959194509250565b60008115159050919050565b610fbc81610fa7565b82525050565b6000602082019050610fd76000830184610fb3565b92915050565b600060208284031215610ff357610ff2610bf4565b5b600061100184828501610ec8565b91505092915050565b7f53747564656e7420494420697320726571756972656400000000000000000000600082015250565b6000611040601683610d48565b915061104b8261100a565b602082019050919050565b6000602082019050818103600083015261106f81611033565b9050919050565b7f46696c6520686173682069732072657175697265640000000000000000000000600082015250565b60006110ac601583610d48565b91506110b782611076565b602082019050919050565b600060208201905081810360008301526110db8161109f565b9050919050565b7f4e487b7100000000000000000000000000000000000000000000000000000000600052604160045260246000fd5b7f4e487b7100000000000000000000000000000000000000000000000000000000600052602260045260246000fd5b6000600282049050600182168061115857607f821691505b60208210810361116b5761116a611111565b5b50919050565b60008190508160005260206000209050919050565b60006020601f8301049050919050565b600082821b905092915050565b6000600883026111d37fffffffffffffffffffffffffffffffffffffffffffffffffffffffffffffffff82611196565b6111dd8683611196565b95508019841693508086168417925050509392505050565b6000819050919050565b600061121a61121561121084610bc0565b6111f5565b610bc0565b9050919050565b6000819050919050565b611234836111ff565b61124861124082611221565b8484546111a3565b825550505050565b600090565b61125d611250565b61126881848461122b565b505050565b5b8181101561128c57611281600082611255565b60018101905061126e565b5050565b601f8211156112d1576112a281611171565b6112ab84611186565b810160208510156112ba578190505b6112ce6112c685611186565b83018261126d565b50505b505050565b600082821c905092915050565b60006112f4600019846008026112d6565b1980831691505092915050565b600061130d83836112e3565b9150826002028217905092915050565b61132682610d3d565b67ffffffffffffffff81111561133f5761133e6110e2565b5b6113498254611140565b611354828285611290565b600060209050601f8311600181146113875760008415611375578287015190505b61137f8582611301565b8655506113e7565b601f19841661139586611171565b60005b828110156113bd57848901518255600182019150602085019450602081019050611398565b868310156113da57848901516113d6601f8916826112e3565b8355505b6001600288020188555050505b505050505050565b600081905092915050565b82818337600083830152505050565b600061141583856113ef565b93506114228385846113fa565b82840190509392505050565b600061143b828486611409565b91508190509392505050565b60006114538385610d48565b93506114608385846113fa565b61146983610d83565b840190509392505050565b6000604082019050818103600083015261148f818587611447565b905061149e6020830184610bca565b949350505050565b7f4e487b7100000000000000000000000000000000000000000000000000000000600052601160045260246000fd5b60006114e082610bc0565b91507fffffffffffffffffffffffffffffffffffffffffffffffffffffffffffffffff8203611512576115116114a6565b5b600182019050919050565b7f436572746966696361746520646f6573206e6f74206578697374000000000000600082015250565b6000611553601a83610d48565b915061155e8261151d565b602082019050919050565b6000602082019050818103600083015261158281611546565b9050919050565b7f426174636820646f6573206e6f74206578697374000000000000000000000000600082015250565b60006115bf601483610d48565b91506115ca82611589565b602082019050919050565b600060208201905081810360008301526115ee816115b2565b9050919050565b7f4e487b7100000000000000000000000000000000000000000000000000000000600052603260045260246000fd5b6000819050919050565b61163f61163a82610e61565b611624565b82525050565b6000611651828561162e565b602082019150611661828461162e565b6020820191508190509392505050565b7f496e76616c6964204d65726b6c6520526f6f7400000000000000000000000000600082015250565b60006116a7601383610d48565b91506116b282611671565b602082019050919050565b600060208201905081810360008301526116d68161169a565b905091905056fea26469706673582212206d55e9b5752736618c9fe6fda77792c5e5c9bd0cb9f8cfab179a7e3e6f55fd9f64736f6c634300081c0033",
  "linkReferences": {},
  "deployedLinkReferences": {}
}