{
  "_format": "hh-sol-artifact-1",
  "contractName": "AcademicCertificate",
  "sourceName": "contracts/AcademicCertificate.sol",
  "abi": [
    {
      "anonymous": false,
      "inputs": [
        {
          "indexed": true,
          "internalType": "uint256",
          "name": "certId",
          "type": "uint256"
        },
        {
          "indexed": true,
          "internalType": "address",
          "name": "university",
          "type": "address"
        },
        {
          "indexed": false,
          "internalType": "string",
          "name": "studentId",
          "type": "string"
        },
        {
          "indexed": false,
          "internalType": "string",
          "name": "s3Hash",
          "type": "string"
        },
        {
          "indexed": false,
          "internalType": "string",
          "name": "fileHash",
          "type": "string"
        },
        {
          "indexed": false,
          "internalType": "uint256",
          "name": "issuedAt",
          "type": "uint256"
        }
      ],
      "name": "CertificateIssued",
      "type": "event"
    },
    {
      "inputs": [],
      "name": "certificateCount",
      "outputs": [
        {
          "internalType": "uint256",
          "name": "",
          "type": "uint256"
        }
      ],
      "stateMutability": "view",
      "type": "function"
    },
    {
      "inputs": [
        {
          "internalType": "uint256",
          "name": "certId",
          "type": "uint256"
        }
      ],
      "name": "certificateExists",
      "outputs": [
        {
          "internalType": "bool",
          "name": "exists",
          "type": "bool"
        }
      ],
      "stateMutability": "view",
      "type": "function"
    },
    {
      "inputs": [
        {
          "internalType": "uint256",
          "name": "",
          "type": "uint256"
        }
      ],
      "name": "certificates",
      "outputs": [
        {
          "internalType": "address",
          "name": "university",
          "type": "address"
        },
        {
          "internalType": "string",
          "name": "studentId",
          "type": "string"
        },
        {
          "internalType": "string",
          "name": "s3Hash",
          "type": "string"
        },
        {
          "internalType": "string",
          "name": "fileHash",
          "type": "string"
        },
        {
          "internalType": "uint256",
          "name": "issuedAt",
          "type": "uint256"
        }
      ],
      "stateMutability": "view",
      "type": "function"
    },
    {
      "inputs": [
        {
          "internalType": "uint256",
          "name": "certId",
          "type": "uint256"
        }
      ],
      "name": "getCertificate",
      "outputs": [
        {
          "internalType": "address",
          "name": "university",
          "type": "address"
        },
        {
          "internalType": "string",
          "name": "studentId",
          "type": "string"
        },
        {
          "internalType": "string",
          "name": "s3Hash",
          "type": "string"
        },
        {
          "internalType": "string",
          "name": "fileHash",
          "type": "string"
        },
        {
          "internalType": "uint256",
          "name": "issuedAt",
          "type": "uint256"
        }
      ],
      "stateMutability": "view",
      "type": "function"
    },
    {
      "inputs": [
        {
          "internalType": "string",
          "name": "studentId",
          "type": "string"
        },
        {
          "internalType": "string",
          "name": "s3Hash",
          "type": "string"
        },
        {
          "internalType": "string",
          "name": "fileHash",
          "type": "string"
        }
      ],
      "name": "issueCertificate",
      "outputs": [
        {
          "internalType": "uint256",
          "name": "certId",
          "type": "uint256"
        }
      ],
      "stateMutability": "nonpayable",
      "type": "function"
    }
  ],
  "bytecode": "0x6080604052348015600f57600080fd5b5061121f8061001f6000396000f3fe608060405234801561001057600080fd5b50600436106100575760003560e01c806351640fee1461005c57806352d7b89c1461009057806365f8d239146100ae578063663b3e22146100de578063beec1caa14610112575b600080fd5b6100766004803603810190610071919061093a565b610142565b604051610087959493929190610a47565b60405180910390f35b6100986103f3565b6040516100a59190610aaf565b60405180910390f35b6100c860048036038101906100c3919061093a565b6103f9565b6040516100d59190610ae5565b60405180910390f35b6100f860048036038101906100f3919061093a565b610406565b604051610109959493929190610a47565b60405180910390f35b61012c60048036038101906101279190610b65565b6105f4565b6040516101399190610aaf565b60405180910390f35b6000606080606060008054861061018e576040517f08c379a000000000000000000000000000000000000000000000000000000000815260040161018590610c65565b60405180910390fd5b6000600160008881526020019081526020016000206040518060a00160405290816000820160009054906101000a900473ffffffffffffffffffffffffffffffffffffffff1673ffffffffffffffffffffffffffffffffffffffff1673ffffffffffffffffffffffffffffffffffffffff16815260200160018201805461021490610cb4565b80601f016020809104026020016040519081016040528092919081815260200182805461024090610cb4565b801561028d5780601f106102625761010080835404028352916020019161028d565b820191906000526020600020905b81548152906001019060200180831161027057829003601f168201915b505050505081526020016002820180546102a690610cb4565b80601f01602080910402602001604051908101604052809291908181526020018280546102d290610cb4565b801561031f5780601f106102f45761010080835404028352916020019161031f565b820191906000526020600020905b81548152906001019060200180831161030257829003601f168201915b5050505050815260200160038201805461033890610cb4565b80601f016020809104026020016040519081016040528092919081815260200182805461036490610cb4565b80156103b15780601f10610386576101008083540402835291602001916103b1565b820191906000526020600020905b81548152906001019060200180831161039457829003601f168201915b50505050508152602001600482015481525050905080600001518160200151826040015183606001518460800151955095509550955095505091939590929450565b60005481565b6000805482109050919050565b60016020528060005260406000206000915090508060000160009054906101000a900473ffffffffffffffffffffffffffffffffffffffff169080600101805461044f90610cb4565b80601f016020809104026020016040519081016040528092919081815260200182805461047b90610cb4565b80156104c85780601f1061049d576101008083540402835291602001916104c8565b820191906000526020600020905b8154815290600101906020018083116104ab57829003601f168201915b5050505050908060020180546104dd90610cb4565b80601f016020809104026020016040519081016040528092919081815260200182805461050990610cb4565b80156105565780601f1061052b57610100808354040283529160200191610556565b820191906000526020600020905b81548152906001019060200180831161053957829003601f168201915b50505050509080600301805461056b90610cb4565b80601f016020809104026020016040519081016040528092919081815260200182805461059790610cb4565b80156105e45780601f106105b9576101008083540402835291602001916105e4565b820191906000526020600020905b8154815290600101906020018083116105c757829003601f168201915b5050505050908060040154905085565b600080878790501161063b576040517f08c379a000000000000000000000000000000000000000000000000000000000815260040161063290610d31565b60405180910390fd5b60008585905011610681576040517f08c379a000000000000000000000000000000000000000000000000000000000815260040161067890610d9d565b60405180910390fd5b600083839050116106c7576040517f08c379a00000000000000000000000000000000000000000000000000000000081526004016106be90610e09565b60405180910390fd5b60005490506040518060a001604052803373ffffffffffffffffffffffffffffffffffffffff16815260200188888080601f016020809104026020016040519081016040528093929190818152602001838380828437600081840152601f19601f82011690508083019250505050505050815260200186868080601f016020809104026020016040519081016040528093929190818152602001838380828437600081840152601f19601f82011690508083019250505050505050815260200184848080601f016020809104026020016040519081016040528093929190818152602001838380828437600081840152601f19601f820116905080830192505050505050508152602001428152506001600083815260200190815260200160002060008201518160000160006101000a81548173ffffffffffffffffffffffffffffffffffffffff021916908373ffffffffffffffffffffffffffffffffffffffff16021790555060208201518160010190816108449190611004565b50604082015181600201908161085a9190611004565b5060608201518160030190816108709190611004565b50608082015181600401559050503373ffffffffffffffffffffffffffffffffffffffff16817f6557fe3fb7bc98c2a20f0aed7feb47f23dc5a5ba78caa8c62e489a8901deda45898989898989426040516108d19796959493929190611112565b60405180910390a36000808154809291906108eb906111a1565b91905055509695505050505050565b600080fd5b600080fd5b6000819050919050565b61091781610904565b811461092257600080fd5b50565b6000813590506109348161090e565b92915050565b6000602082840312156109505761094f6108fa565b5b600061095e84828501610925565b91505092915050565b600073ffffffffffffffffffffffffffffffffffffffff82169050919050565b600061099282610967565b9050919050565b6109a281610987565b82525050565b600081519050919050565b600082825260208201905092915050565b60005b838110156109e25780820151818401526020810190506109c7565b60008484015250505050565b6000601f19601f8301169050919050565b6000610a0a826109a8565b610a1481856109b3565b9350610a248185602086016109c4565b610a2d816109ee565b840191505092915050565b610a4181610904565b82525050565b600060a082019050610a5c6000830188610999565b8181036020830152610a6e81876109ff565b90508181036040830152610a8281866109ff565b90508181036060830152610a9681856109ff565b9050610aa56080830184610a38565b9695505050505050565b6000602082019050610ac46000830184610a38565b92915050565b60008115159050919050565b610adf81610aca565b82525050565b6000602082019050610afa6000830184610ad6565b92915050565b600080fd5b600080fd5b600080fd5b60008083601f840112610b2557610b24610b00565b5b8235905067ffffffffffffffff811115610b4257610b41610b05565b5b602083019150836001820283011115610b5e57610b5d610b0a565b5b9250929050565b60008060008060008060608789031215610b8257610b816108fa565b5b600087013567ffffffffffffffff811115610ba057610b9f6108ff565b5b610bac89828a01610b0f565b9650965050602087013567ffffffffffffffff811115610bcf57610bce6108ff565b5b610bdb89828a01610b0f565b9450945050604087013567ffffffffffffffff811115610bfe57610bfd6108ff565b5b610c0a89828a01610b0f565b92509250509295509295509295565b7f436572746966696361746520646f6573206e6f74206578697374000000000000600082015250565b6000610c4f601a836109b3565b9150610c5a82610c19565b602082019050919050565b60006020820190508181036000830152610c7e81610c42565b9050919050565b7f4e487b7100000000000000000000000000000000000000000000000000000000600052602260045260246000fd5b60006002820490506001821680610ccc57607f821691505b602082108103610cdf57610cde610c85565b5b50919050565b7f53747564656e7420494420726571756972656400000000000000000000000000600082015250565b6000610d1b6013836109b3565b9150610d2682610ce5565b602082019050919050565b60006020820190508181036000830152610d4a81610d0e565b9050919050565b7f5333206861736820726571756972656400000000000000000000000000000000600082015250565b6000610d876010836109b3565b9150610d9282610d51565b602082019050919050565b60006020820190508181036000830152610db681610d7a565b9050919050565b7f46696c6520686173682072657175697265640000000000000000000000000000600082015250565b6000610df36012836109b3565b9150610dfe82610dbd565b602082019050919050565b60006020820190508181036000830152610e2281610de6565b9050919050565b7f4e487b7100000000000000000000000000000000000000000000000000000000600052604160045260246000fd5b60008190508160005260206000209050919050565b60006020601f8301049050919050565b600082821b905092915050565b600060088302610eba7fffffffffffffffffffffffffffffffffffffffffffffffffffffffffffffffff82610e7d565b610ec48683610e7d565b95508019841693508086168417925050509392505050565b6000819050919050565b6000610f01610efc610ef784610904565b610edc565b610904565b9050919050565b6000819050919050565b610f1b83610ee6565b610f2f610f2782610f08565b848454610e8a565b825550505050565b600090565b610f44610f37565b610f4f818484610f12565b505050565b5b81811015610f7357610f68600082610f3c565b600181019050610f55565b5050565b601f821115610fb857610f8981610e58565b610f9284610e6d565b81016020851015610fa1578190505b610fb5610fad85610e6d565b830182610f54565b50505b505050565b600082821c905092915050565b6000610fdb60001984600802610fbd565b1980831691505092915050565b6000610ff48383610fca565b9150826002028217905092915050565b61100d826109a8565b67ffffffffffffffff81111561102657611025610e29565b5b6110308254610cb4565b61103b828285610f77565b600060209050601f83116001811461106e576000841561105c578287015190505b6110668582610fe8565b8655506110ce565b601f19841661107c86610e58565b60005b828110156110a45784890151825560018201915060208501945060208101905061107f565b868310156110c157848901516110bd601f891682610fca565b8355505b6001600288020188555050505b505050505050565b82818337600083830152505050565b60006110f183856109b3565b93506110fe8385846110d6565b611107836109ee565b840190509392505050565b6000608082019050818103600083015261112d81898b6110e5565b905081810360208301526111428187896110e5565b905081810360408301526111578185876110e5565b90506111666060830184610a38565b98975050505050505050565b7f4e487b7100000000000000000000000000000000000000000000000000000000600052601160045260246000fd5b60006111ac82610904565b91507fffffffffffffffffffffffffffffffffffffffffffffffffffffffffffffffff82036111de576111dd611172565b5b60018201905091905056fea2646970667358221220624b8a06fb91dcb78971c916dbbb235be0e671ae8a89b1a46e6988e63989e85e64736f6c634300081c0033",
  "linkReferences": {},
  "deployedLinkReferences": {}
}