{
  "_format": "hh-sol-artifact-1",
  "contractName": "AcademicCertificate",
  "sourceName": "contracts/AcademicCertificate.sol",
  "abi": [
    {
      "anonymous": false,
      "inputs": [
        {
          "indexed": true,
          "internalType": "uint256",
          "name": "certId",
          "type": "uint256"
        },
        {
          "indexed": true,
          "internalType": "string",
          "name": "studentId",
          "type": "string"
        },
        {
          "indexed": false,
          "internalType": "string",
          "name": "fileHash",
          "type": "string"
        },
        {
          "indexed": true,
          "internalType": "address",
          "name": "issuer",
          "type": "address"
        },
        {
          "indexed": false,
          "internalType": "uint256",
          "name": "issuedAt",
          "type": "uint256"
        }
      ],
      "name": "CertificateIssued",
      "type": "event"
    },
    {
      "inputs": [],
      "name": "certificateCount",
      "outputs": [
        {
          "internalType": "uint256",
          "name": "",
          "type": "uint256"
        }
      ],
      "stateMutability": "view",
      "type": "function"
    },
    {
      "inputs": [
        {
          "internalType": "uint256",
          "name": "",
          "type": "uint256"
        }
      ],
      "name": "certificates",
      "outputs": [
        {
          "internalType": "string",
          "name": "studentId",
          "type": "string"
        },
        {
          "internalType": "string",
          "name": "fileHash",
          "type": "string"
        },
        {
          "internalType": "address",
          "name": "issuer",
          "type": "address"
        },
        {
          "internalType": "uint256",
          "name": "issuedAt",
          "type": "uint256"
        }
      ],
      "stateMutability": "view",
      "type": "function"
    },
    {
      "inputs": [
        {
          "internalType": "uint256",
          "name": "certId",
          "type": "uint256"
        }
      ],
      "name": "getCertificate",
      "outputs": [
        {
          "internalType": "string",
          "name": "studentId",
          "type": "string"
        },
        {
          "internalType": "string",
          "name": "fileHash",
          "type": "string"
        },
        {
          "internalType": "address",
          "name": "issuer",
          "type": "address"
        },
        {
          "internalType": "uint256",
          "name": "issuedAt",
          "type": "uint256"
        }
      ],
      "stateMutability": "view",
      "type": "function"
    },
    {
      "inputs": [
        {
          "internalType": "string",
          "name": "studentId",
          "type": "string"
        },
        {
          "internalType": "string",
          "name": "fileHash",
          "type": "string"
        }
      ],
      "name": "issueCertificate",
      "outputs": [
        {
          "internalType": "uint256",
          "name": "certId",
          "type": "uint256"
        }
      ],
      "stateMutability": "nonpayable",
      "type": "function"
    }
  ],
  "bytecode": "0x6080604052348015600f57600080fd5b50610f438061001f6000396000f3fe608060405234801561001057600080fd5b506004361061004c5760003560e01c8063211bbe711461005157806351640fee1461008157806352d7b89c146100b4578063663b3e22146100d2575b600080fd5b61006b6004803603810190610066919061075c565b610105565b60405161007891906107f6565b60405180910390f35b61009b6004803603810190610096919061083d565b610373565b6040516100ab949392919061093b565b60405180910390f35b6100bc610587565b6040516100c991906107f6565b60405180910390f35b6100ec60048036038101906100e7919061083d565b61058d565b6040516100fc949392919061093b565b60405180910390f35b600080858590501161014c576040517f08c379a0000000000000000000000000000000000000000000000000000000008152600401610143906109da565b60405180910390fd5b60008383905011610192576040517f08c379a000000000000000000000000000000000000000000000000000000000815260040161018990610a46565b60405180910390fd5b6000549050604051806080016040528086868080601f016020809104026020016040519081016040528093929190818152602001838380828437600081840152601f19601f82011690508083019250505050505050815260200184848080601f016020809104026020016040519081016040528093929190818152602001838380828437600081840152601f19601f8201169050808301925050505050505081526020013373ffffffffffffffffffffffffffffffffffffffff1681526020014281525060016000838152602001908152602001600020600082015181600001908161027e9190610ca1565b5060208201518160010190816102949190610ca1565b5060408201518160020160006101000a81548173ffffffffffffffffffffffffffffffffffffffff021916908373ffffffffffffffffffffffffffffffffffffffff160217905550606082015181600301559050503373ffffffffffffffffffffffffffffffffffffffff168585604051610310929190610db2565b6040518091039020827fb07069e23781704a9604760f879cb47d80ef60e392203a4f66ea3c247ebf64dd86864260405161034c93929190610df8565b60405180910390a460008081548092919061036690610e59565b9190505550949350505050565b60608060008060005485106103bd576040517f08c379a00000000000000000000000000000000000000000000000000000000081526004016103b490610eed565b60405180910390fd5b6000600160008781526020019081526020016000206040518060800160405290816000820180546103ed90610ac4565b80601f016020809104026020016040519081016040528092919081815260200182805461041990610ac4565b80156104665780601f1061043b57610100808354040283529160200191610466565b820191906000526020600020905b81548152906001019060200180831161044957829003601f168201915b5050505050815260200160018201805461047f90610ac4565b80601f01602080910402602001604051908101604052809291908181526020018280546104ab90610ac4565b80156104f85780601f106104cd576101008083540402835291602001916104f8565b820191906000526020600020905b8154815290600101906020018083116104db57829003601f168201915b505050505081526020016002820160009054906101000a900473ffffffffffffffffffffffffffffffffffffffff1673ffffffffffffffffffffffffffffffffffffffff1673ffffffffffffffffffffffffffffffffffffffff168152602001600382015481525050905080600001518160200151826040015183606001519450945094509450509193509193565b60005481565b60016020528060005260406000206000915090508060000180546105b090610ac4565b80601f01602080910402602001604051908101604052809291908181526020018280546105dc90610ac4565b80156106295780601f106105fe57610100808354040283529160200191610629565b820191906000526020600020905b81548152906001019060200180831161060c57829003601f168201915b50505050509080600101805461063e90610ac4565b80601f016020809104026020016040519081016040528092919081815260200182805461066a90610ac4565b80156106b75780601f1061068c576101008083540402835291602001916106b7565b820191906000526020600020905b81548152906001019060200180831161069a57829003601f168201915b5050505050908060020160009054906101000a900473ffffffffffffffffffffffffffffffffffffffff16908060030154905084565b600080fd5b600080fd5b600080fd5b600080fd5b600080fd5b60008083601f84011261071c5761071b6106f7565b5b8235905067ffffffffffffffff811115610739576107386106fc565b5b60208301915083600182028301111561075557610754610701565b5b9250929050565b60008060008060408587031215610776576107756106ed565b5b600085013567ffffffffffffffff811115610794576107936106f2565b5b6107a087828801610706565b9450945050602085013567ffffffffffffffff8111156107c3576107c26106f2565b5b6107cf87828801610706565b925092505092959194509250565b6000819050919050565b6107f0816107dd565b82525050565b600060208201905061080b60008301846107e7565b92915050565b61081a816107dd565b811461082557600080fd5b50565b60008135905061083781610811565b92915050565b600060208284031215610853576108526106ed565b5b600061086184828501610828565b91505092915050565b600081519050919050565b600082825260208201905092915050565b60005b838110156108a4578082015181840152602081019050610889565b60008484015250505050565b6000601f19601f8301169050919050565b60006108cc8261086a565b6108d68185610875565b93506108e6818560208601610886565b6108ef816108b0565b840191505092915050565b600073ffffffffffffffffffffffffffffffffffffffff82169050919050565b6000610925826108fa565b9050919050565b6109358161091a565b82525050565b6000608082019050818103600083015261095581876108c1565b9050818103602083015261096981866108c1565b9050610978604083018561092c565b61098560608301846107e7565b95945050505050565b7f53747564656e7420494420697320726571756972656400000000000000000000600082015250565b60006109c4601683610875565b91506109cf8261098e565b602082019050919050565b600060208201905081810360008301526109f3816109b7565b9050919050565b7f46696c6520686173682069732072657175697265640000000000000000000000600082015250565b6000610a30601583610875565b9150610a3b826109fa565b602082019050919050565b60006020820190508181036000830152610a5f81610a23565b9050919050565b7f4e487b7100000000000000000000000000000000000000000000000000000000600052604160045260246000fd5b7f4e487b7100000000000000000000000000000000000000000000000000000000600052602260045260246000fd5b60006002820490506001821680610adc57607f821691505b602082108103610aef57610aee610a95565b5b50919050565b60008190508160005260206000209050919050565b60006020601f8301049050919050565b600082821b905092915050565b600060088302610b577fffffffffffffffffffffffffffffffffffffffffffffffffffffffffffffffff82610b1a565b610b618683610b1a565b95508019841693508086168417925050509392505050565b6000819050919050565b6000610b9e610b99610b94846107dd565b610b79565b6107dd565b9050919050565b6000819050919050565b610bb883610b83565b610bcc610bc482610ba5565b848454610b27565b825550505050565b600090565b610be1610bd4565b610bec818484610baf565b505050565b5b81811015610c1057610c05600082610bd9565b600181019050610bf2565b5050565b601f821115610c5557610c2681610af5565b610c2f84610b0a565b81016020851015610c3e578190505b610c52610c4a85610b0a565b830182610bf1565b50505b505050565b600082821c905092915050565b6000610c7860001984600802610c5a565b1980831691505092915050565b6000610c918383610c67565b9150826002028217905092915050565b610caa8261086a565b67ffffffffffffffff811115610cc357610cc2610a66565b5b610ccd8254610ac4565b610cd8828285610c14565b600060209050601f831160018114610d0b5760008415610cf9578287015190505b610d038582610c85565b865550610d6b565b601f198416610d1986610af5565b60005b82811015610d4157848901518255600182019150602085019450602081019050610d1c565b86831015610d5e5784890151610d5a601f891682610c67565b8355505b6001600288020188555050505b505050505050565b600081905092915050565b82818337600083830152505050565b6000610d998385610d73565b9350610da6838584610d7e565b82840190509392505050565b6000610dbf828486610d8d565b91508190509392505050565b6000610dd78385610875565b9350610de4838584610d7e565b610ded836108b0565b840190509392505050565b60006040820190508181036000830152610e13818587610dcb565b9050610e2260208301846107e7565b949350505050565b7f4e487b7100000000000000000000000000000000000000000000000000000000600052601160045260246000fd5b6000610e64826107dd565b91507fffffffffffffffffffffffffffffffffffffffffffffffffffffffffffffffff8203610e9657610e95610e2a565b5b600182019050919050565b7f436572746966696361746520646f6573206e6f74206578697374000000000000600082015250565b6000610ed7601a83610875565b9150610ee282610ea1565b602082019050919050565b60006020820190508181036000830152610f0681610eca565b905091905056fea264697066735822122086ffb32bfaaa8700c16bdf32e22cfe009c4421413ef6b308113417ac0124931e64736f6c634300081c0033",
  "linkReferences": {},
  "deployedLinkReferences": {}
}